:020000040800F2
:10000000600600206D01000875050008AB040008BB
:1000100071050008270200087107000800000000B1
:1000200000000000000000000000000021060008A1
:100030002B02000800000000FD0500080D07000865
:100040008701000887010008870100088701000870
:1000500087010008870100082D02000887010008B9
:100060008701000887010008870100088701000850
:100070008701000887010008870100088701000840
:100080008701000887010008870100088701000830
:100090008701000887010008870100088701000820
:1000A0008701000887010008870100088701000810
:1000B0008701000887010008870100088701000800
:1000C00087010008870100088701000887010008F0
:1000D00087010008870100088701000887010008E0
:1000E00087010008870100088701000800F002F876
:1000F00000F02CF80AA090E8000C82448344AAF196
:100100000107DA4501D100F021F8AFF2090EBAE893
:100110000F0013F0010F18BFFB1A43F0010318473B
:100120007806000088060000002300240025002631
:10013000103A28BF78C1FBD8520728BF30C148BF4A
:100140000B6070471FB51FBD10B510BD00F031F832
:100150001146FFF7F7FF00F00DFB00F04FF803B476
:10016000FFF7F2FF03BC00F057F800000948804792
:1001700009480047FEE7FEE7FEE7FEE7FEE7FEE789
:10018000FEE7FEE7FEE7FEE704480549054A064BA1
:100190007047000011070008ED0000086000002013
:1001A0006006002060020020600200207047704757
:1001B0007047754600F02CF8AE4605006946534678
:1001C00020F00700854618B020B5FFF7DDFFBDE839
:1001D00020404FF000064FF000074FF000084FF0AE
:1001E000000B21F00701AC46ACE8C009ACE8C0093F
:1001F000ACE8C009ACE8C0098D46704710B50446AC
:10020000AFF300802046BDE81040FFF7A8BF000014
:10021000004870470000002001491820ABBEFEE7EF
:1002200026000200704700BFFEE7704710B50120AE
:1002300000F032F820B100F055F9012000F026F866
:1002400010BD0EB50121084600F0DAF9002108467C
:1002500000F080F8012001908DF80A0000208DF850
:1002600008000C208DF8090001A800F029F80620EC
:100270008DF8000001208DF8030002208DF80100A8
:100280008DF80200684600F077F90EBD014908605C
:100290007047000014040140014600200022074B73
:1002A0001B6803EA0102054B14331B680B4013B1B2
:1002B0000AB1012000E00020704700000004014066
:1002C000002123498279002A3AD00A46126803683D
:1002D0009A430B461A600A1D126803689A430B1D65
:1002E0001A60027911440A6803681A430A60184ABE
:1002F0000832126803689A43154B08331A601A1DB6
:10030000126803689A43124B0C331A604279102A20
:100310000ED11A1F126803681A430D4B08331A6076
:100320001A1D126803681A43094B0C331A600DE05A
:100330000749427911440A6803681A430A6005E0D4
:10034000027911440A6803689A430A607047000002
:100350000004014030B500228B071C0F0F2303FA65
:1003600004F20B4B8C1053F824309343084C8D103F
:1003700044F8253023468C1053F824308C07240F82
:1003800000FA04F42343024C8D1044F8253030BDAC
:10039000080001402DE9F04102460025002600201A
:1003A00000230024002791F803C00CF00F0591F8FA
:1003B00003C00CF0100CBCF1000F03D091F802C088
:1003C0004CEA050591F800C0BCF1000F31D014686B
:1003D00000202BE04FF0010C0CFA00F3B1F800C044
:1003E0000CEA03069E4220D183004FF00F0C0CFA5A
:1003F00003F7BC4305FA03FC4CEA040491F803C07C
:10040000BCF1280F06D14FF0010C0CFA00FCC2F829
:1004100014C00AE091F803C0BCF1480F05D14FF0B9
:10042000010C0CFA00FCC2F810C0401C0828D1D303
:100430001460B1F800C0BCF1FF0F34DD5468002037
:100440002EE000F1080C4FF0010808FA0CF3B1F8A7
:1004500000C00CEA03069E4221D183004FF00F0C2E
:100460000CFA03F7BC4305FA03FC4CEA040491F8C8
:1004700003C0BCF1280F05D100F1080C08FA0CF8F4
:10048000C2F8148091F803C0BCF1480F07D100F105
:10049000080C4FF0010808FA0CF8C2F81080401C54
:1004A0000828CED35460BDE8F08100BFFEE700000D
:1004B0004CF6CC4001490860704700000030004015
:1004C00070B505460C4645F2555000F01FF8284619
:1004D00000F010F8204600F013F800F003F8FFF7E2
:1004E000E7FF70BD4AF6AA20014908607047000086
:1004F0000030004001494860704700000030004073
:1005000001498860704700000030004001490860E0
:10051000704700000030004008B50121042000F0C1
:100520006FF848208DF803000120ADF8000003208B
:100530008DF8020069460248FFF72CFF08BD000055
:100540000008014008B50121102000F059F81020E2
:100550008DF803004002ADF8000003208DF8020082
:1005600069460248FFF716FF08BD00000010014071
:1005700000BFFEE77047000070B5002100230F2286
:10058000C47804B3154C246804F4E064C4F5E06452
:10059000210AC1F10403CA40447804FA03F18478C3
:1005A0001440214309010E4C0678A155047804F04B
:1005B0001F050124AC4005786D11AD0005F1E02563
:1005C000C5F8004109E0047804F01F050124AC409F
:1005D000044D0678761145F8264070BD0CED00E01C
:1005E00000E400E080E100E002490143024A1160BA
:1005F000704700000000FA050CED00E070470000B5
:1006000029B1064A92690243044B9A6104E0034A05
:1006100092698243014B9A617047000000100240CA
:10062000704710B500F002F810BD00000CB50020B6
:10063000019000903348006840F4803031490860F0
:1006400000BF3048006800F4003000900198401C62
:100650000190009818B90198B0F5A06FF1D1294820
:10066000006800F4003010B10120009001E000208B
:1006700000900098012843D12348006840F0100002
:10068000214908600846006820F003000860084619
:10069000006840F0020008601A4840681949486044
:1006A0000846406848600846406840F480604860FA
:1006B0000846406820F47C1048600846406840F4D2
:1006C000E81048600846006840F08070086000BF8D
:1006D0000C48006800F000700028F9D00948406814
:1006E00020F00300074948600846406840F00200D7
:1006F000486000BF0348406800F00C000828F9D1AA
:100700000CBD0000001002400020024070470000B5
:1007100010B51348006840F0010011490860084610
:100720004068104908400E494860084600680E4974
:1007300008400B4908600846006820F480200860E3
:100740000846406820F4FE0048604FF41F008860AF
:10075000FFF767FF4FF000600449086010BD00001C
:10076000001002400000FFF8FFFFF6FE08ED00E079
:1007700000BFFEE74FF4A060FFF736FFFFF7E2FE91
:10078000FFF75FFDFFF7C8FE40F271210420FFF77D
:1007900097FE00BFFEE70000A80700080000002049
:0807A0006006000028010008BA
:04000005080000ED02
:00000001FF
