:020000040800F2
:100000007806002089010008310500085F03000818
:100010002D05000843020008150700080000000035
:100020000000000000000000000000009D05000826
:10003000470200080000000033050008B106000870
:10004000A3010008A3010008A3010008A301000800
:10005000A3010008A3010008A3010008A3010008F0
:10006000A3010008A3010008A3010008A3010008E0
:10007000A3010008A3010008A3010008A3010008D0
:10008000A3010008A3010008A3010008A3010008C0
:10009000A3010008A3010008A3010008A3010008B0
:1000A000A3010008A3010008A3010008A3010008A0
:1000B000A3010008A3010008A3010008A301000890
:1000C000A3010008A3010008A3010008A301000880
:1000D000A3010008A3010008A3010008A301000870
:1000E000A3010008A3010008A301000800F002F822
:1000F00000F03AF80AA090E8000C82448344AAF188
:100100000107DA4501D100F02FF8AFF2090EBAE885
:100110000F0013F0010F18BFFB1A43F0010318473B
:100120002007000040070000103A24BF78C878C1BB
:10013000FAD8520724BF30C830C144BF04680C60ED
:10014000704700000023002400250026103A28BF35
:1001500078C1FBD8520728BF30C148BF0B60704739
:100160001FB51FBD10B510BD00F031F81146FFF7E7
:10017000F7FF00F03FFB00F04FF803B4FFF7F2FF8A
:1001800003BC00F057F800000948804709480047C1
:10019000FEE7FEE7FEE7FEE7FEE7FEE7FEE7FEE737
:1001A000FEE7FEE704480549054A064B7047000094
:1001B000B5060008ED000008780000207806002051
:1001C000780200207802002070477047704775461B
:1001D00000F02CF8AE4605006946534620F00700B3
:1001E000854618B020B5FFF7DDFFBDE820404FF091
:1001F00000064FF000074FF000084FF0000B21F011
:100200000701AC46ACE8C009ACE8C009ACE8C009DD
:10021000ACE8C0098D46704710B50446AFF30080C6
:100220002046BDE81040FFF7A8BF00000048704717
:100230001800002001491820ABBEFEE7260002008E
:10024000704700BFFEE770472DE9F04102460025E8
:100250000026002000230024002791F803C00CF0A2
:100260000F0591F803C00CF0100CBCF1000F03D087
:1002700091F802C04CEA050591F800C0BCF1000FEE
:1002800031D0146800202BE04FF0010C0CFA00F381
:10029000B1F800C00CEA03069E4220D183004FF063
:1002A0000F0C0CFA03F7BC4305FA03FC4CEA0404F8
:1002B00091F803C0BCF1280F06D14FF0010C0CFAE5
:1002C00000FCC2F814C00AE091F803C0BCF1480F6A
:1002D00005D14FF0010C0CFA00FCC2F810C0401C14
:1002E0000828D1D31460B1F800C0BCF1FF0F34DD91
:1002F000546800202EE000F1080C4FF0010808FAC5
:100300000CF3B1F800C00CEA03069E4221D1830031
:100310004FF00F0C0CFA03F7BC4305FA03FC4CEA50
:10032000040491F803C0BCF1280F05D100F1080CBA
:1003300008FA0CF8C2F8148091F803C0BCF1480F19
:1003400007D100F1080C4FF0010808FA0CF8C2F8C8
:100350001080401C0828CED35460BDE8F08100BF57
:10036000FEE7000010B500F007F900200949086019
:100370000949C1F88401022000F016FA012005495C
:100380000860022000F010FA00200349C1F8800143
:1003900010BD0000808121420080214208B501216A
:1003A000082000F0C7F814208DF803000320ADF8F2
:1003B00000008DF8020069460148FFF745FF08BDBF
:1003C000000C014070B500F0C5F8002517E060068C
:1003D000040E00200F490860022000F0E5F901201A
:1003E0000D49C1F88001022000F0DEF909487C388F
:1003F000006840F001002043C4B2681CC5B2082D5B
:10040000E5DB0020034908600349C1F88401204668
:1004100070BD0000808121420080214270B50446F9
:1004200000F0AAF800251DE0002010490860022015
:1004300000F0BAF9E0090E49C1F88401022000F089
:10044000B3F9012009490860022000F0ADF900204D
:100450000749C1F88001022000F0A6F96006040EE9
:10046000681CC5B2082DDFDB70BD00008081214211
:100470000080214210B500F07FF801200A49086091
:100480000A49C1F88001022000F08EF900200649D7
:100490000860022000F088F900200449C1F88001BA
:1004A000022000F081F910BD8481214200802142A8
:1004B00010B500F061F800200749086001200749E5
:1004C000C1F88001022000F06FF9012002490860A4
:1004D000022000F069F910BD848121420080214290
:1004E00010B500F037F801200E4908600E49C1F838
:1004F0008001022000F058F907E0601CC4B2FA2C19
:1005000003DDFFF7D5FF012010BD064880380068E5
:100510000028F2D10349091F0860022000F044F9C5
:100520000020F1E7848121420080214200BFFEE7E4
:100530007047704729B1064A92690243044B9A6199
:1005400004E0034A92698243014B9A6170470000BC
:100550000010024008B548208DF803000220ADF8D5
:10056000000003208DF8020069460248FFF76CFE88
:1005700008BD0000000C014008B510208DF80300F4
:100580000220ADF8000003208DF802006946024801
:10059000FFF75AFE08BD0000000C0140704710B57F
:1005A00000F002F810BD00000CB500200190009092
:1005B0003348006840F480303149086000BF30485B
:1005C000006800F4003000900198401C01900098F1
:1005D00018B90198B0F5A06FF1D12948006800F46E
:1005E000003010B10120009001E000200090009840
:1005F000012843D12348006840F0100021490860D9
:100600000846006820F0030008600846006840F0D3
:10061000020008601A484068194948600846406866
:1006200048600846406840F480604860084640687A
:1006300020F47C1048600846406840F4E8104860A8
:100640000846006840F08070086000BF0C480068F1
:1006500000F000700028F9D00948406820F003003D
:10066000074948600846406840F00200486000BF03
:100670000348406800F00C000828F9D10CBD0000C8
:100680000010024000200240042808D14FF0E02171
:10069000096941F004014FF0E022116107E04FF0D9
:1006A000E021096921F004014FF0E0221161704757
:1006B0007047000010B51348006840F00100114970
:1006C000086008464068104908400E4948600846DE
:1006D00000680E4908400B4908600846006820F48D
:1006E000802008600846406820F4FE0048604FF40F
:1006F0001F008860FFF753FF4FF000600449086057
:1007000010BD0000001002400000FFF8FFFFF6FEE1
:1007100008ED00E000BFFEE710B56FF00400FFF742
:10072000B3FF0A4800680A49B0FBF1F009490870B4
:100730000846007800EB4001C1EBC0104FF6FF7196
:1007400001EAC0000449088010BD0000000000203C
:1007500000127A0014000020160000200146114A01
:1007600012884A434FF0E0235A6100229A611A46E8
:10077000126942F001021A6100BF4FF0E0221069D5
:1007800000F001021AB100F48032002AF5D04FF0D7
:10079000E022126922F001024FF0E0231A610022E8
:1007A0009A617047160000200146114A12784A43A8
:1007B0004FF0E0235A6100229A611A46126942F012
:1007C00001021A6100BF4FF0E022106900F001023F
:1007D0001AB100F48032002AF5D04FF0E0221269FD
:1007E00022F001024FF0E0231A6100229A61704763
:1007F0001400002000BFFFF7D1FDFFF78DFF1EE0C2
:100800001420FFF7ABFFFFF735FED020FFF706FE01
:10081000FFF766FEB020FFF701FEFFF761FEFFF76E
:1008200029FEA120FFF7FAFDFFF75AFEFFF7CAFDE8
:10083000FFF798FDFFF73CFE1420FFF78FFFDFE77F
:1008400060080008000000201800000028010008CF
:100850007808000818000020600600004401000825
:1008600000A24A040000000000000000010203048E
:08087000060708090000000062
:04000005080000ED02
:00000001FF
