:020000040800F2
:100000008006002089010008130600085F0300082D
:100010000F06000843020008D10700080000000096
:100020000000000000000000000000005906000869
:100030004702000800000000150600086D070008D0
:10004000A3010008A3010008A3010008A301000800
:10005000A3010008A3010008A3010008A3010008F0
:10006000A3010008A3010008A3010008A3010008E0
:10007000A3010008A3010008A3010008A3010008D0
:10008000A3010008A3010008A3010008A3010008C0
:10009000A3010008A3010008A3010008A3010008B0
:1000A000A3010008A3010008A3010008A3010008A0
:1000B000A3010008A3010008A3010008A301000890
:1000C000A3010008A3010008A3010008A301000880
:1000D000A3010008A3010008A3010008A301000870
:1000E000A3010008A3010008A301000800F002F822
:1000F00000F03AF80AA090E8000C82448344AAF188
:100100000107DA4501D100F02FF8AFF2090EBAE885
:100110000F0013F0010F18BFFB1A43F0010318473B
:10012000B0070000D0070000103A24BF78C878C19B
:10013000FAD8520724BF30C830C144BF04680C60ED
:10014000704700000023002400250026103A28BF35
:1001500078C1FBD8520728BF30C148BF0B60704739
:100160001FB51FBD10B510BD00F031F81146FFF7E7
:10017000F7FF00F09DFB00F04FF803B4FFF7F2FF2C
:1001800003BC00F057F800000948804709480047C1
:10019000FEE7FEE7FEE7FEE7FEE7FEE7FEE7FEE737
:1001A000FEE7FEE704480549054A064B7047000094
:1001B00071070008ED000008800000208006002084
:1001C000800200208002002070477047704775460B
:1001D00000F02CF8AE4605006946534620F00700B3
:1001E000854618B020B5FFF7DDFFBDE820404FF091
:1001F00000064FF000074FF000084FF0000B21F011
:100200000701AC46ACE8C009ACE8C009ACE8C009DD
:10021000ACE8C0098D46704710B50446AFF30080C6
:100220002046BDE81040FFF7A8BF00000048704717
:100230001C00002001491820ABBEFEE7260002008A
:10024000704700BFFEE770472DE9F04102460025E8
:100250000026002000230024002791F803C00CF0A2
:100260000F0591F803C00CF0100CBCF1000F03D087
:1002700091F802C04CEA050591F800C0BCF1000FEE
:1002800031D0146800202BE04FF0010C0CFA00F381
:10029000B1F800C00CEA03069E4220D183004FF063
:1002A0000F0C0CFA03F7BC4305FA03FC4CEA0404F8
:1002B00091F803C0BCF1280F06D14FF0010C0CFAE5
:1002C00000FCC2F814C00AE091F803C0BCF1480F6A
:1002D00005D14FF0010C0CFA00FCC2F810C0401C14
:1002E0000828D1D31460B1F800C0BCF1FF0F34DD91
:1002F000546800202EE000F1080C4FF0010808FAC5
:100300000CF3B1F800C00CEA03069E4221D1830031
:100310004FF00F0C0CFA03F7BC4305FA03FC4CEA50
:10032000040491F803C0BCF1280F05D100F1080CBA
:1003300008FA0CF8C2F8148091F803C0BCF1480F19
:1003400007D100F1080C4FF0010808FA0CF8C2F8C8
:100350001080401C0828CED35460BDE8F08100BF57
:10036000FEE7000008B50121082000F055F914202F
:100370008DF803000320ADF800008DF802006946F7
:100380000148FFF761FF08BD000C014010B50020D7
:100390000949086001200949C1F88401022000F0E0
:1003A00061FA012004490860022000F05BFA002095
:1003B0000249C1F8800110BD8081214200802142A4
:1003C00070B5002517E06006040E00200F49086094
:1003D000022000F047FA01200D49C1F880010220F7
:1003E00000F040FA09487C38006840F001002043E2
:1003F000C4B2681CC5B2082DE5DB002003490860C3
:100400000349C1F88401204670BD0000808121426B
:100410000080214270B504460D4600F04BF808B943
:10042000002070BD204600F01BF800F083F808B9EA
:100430000020F6E7284600F013F800F07BF800F003
:1004400039F844F0010000F00BF800F073F8FFF702
:10045000B7FF0646FFF79AFF00F056F83046E0E790
:1004600070B5044600251DE00020104908600220F8
:1004700000F0F8F9E0090E49C1F88401022000F00B
:10048000F1F9012009490860022000F0EBF9002091
:100490000749C1F88001022000F0E4F96006040E6B
:1004A000681CC5B2082DDFDB70BD000080812142D1
:1004B0000080214210B50120114908601149C1F89E
:1004C0008001022000F0CEF90D488038006808B99C
:1004D000002010BD00200A490860022000F0C2F987
:1004E0000848D0F8040108B10020F2E700200449D0
:1004F000091F0860022000F0B5F90120E9E70000BB
:10050000848121420080214210B500200749086003
:1005100001200749C1F88001022000F0A3F9012061
:1005200002490860022000F09DF910BD848121423B
:100530000080214210B5002011490860022000F01F
:1005400091F901200F49C1F88401022000F08AF9D5
:1005500001200B49086007E0601CC4B2FA2C03DDDF
:10056000FFF7D2FF002010BD05487C380068002846
:10057000F2D103490860022000F074F90120F2E78B
:10058000808121420080214270B506460C46154606
:10059000FFF790FFF0B13046FFF762FFFFF7CAFFA9
:1005A00008B9002070BD2046FFF75AFFFFF7C2FFD1
:1005B00008B90020F6E72846FFF752FFFFF7BAFF19
:1005C00008B90020EEE7FFF79FFF022000F024F9B2
:1005D0000120E7E70020E5E710B500226B21D020DD
:1005E000FFF7D2FF07221921D020FFF7CDFF062207
:1005F0001A21D020FFF7C8FF18221B21D020FFF7B7
:10060000C3FF01221C21D020FFF7BEFF10BD00BF99
:10061000FEE770477047000029B1064A926902431D
:10062000044B9A6104E0034A92698243014B9A6148
:10063000704700000010024010B54221D020FFF7A3
:10064000E9FE044908704121D020FFF7E3FE01498B
:10065000487010BD00000020704710B500F002F88F
:1006600010BD00000CB500200190009033480068D8
:1006700040F480303149086000BF3048006800F421
:10068000003000900198401C0190009818B9019822
:10069000B0F5A06FF1D12948006800F4003010B126
:1006A0000120009001E0002000900098012843D133
:1006B0002348006840F0100021490860084600689F
:1006C00020F0030008600846006840F0020008605F
:1006D0001A4840681949486008464068486008461A
:1006E000406840F4806048600846406820F47C1010
:1006F00048600846406840F4E810486008460068D2
:1007000040F08070086000BF0C48006800F0007086
:100710000028F9D00948406820F0030007494860E4
:100720000846406840F00200486000BF0348406847
:1007300000F00C000828F9D10CBD000000100240A8
:1007400000200240042808D14FF0E021096941F05F
:1007500004014FF0E022116107E04FF0E021096948
:1007600021F004014FF0E022116170477047000052
:1007700010B51348006840F00100114908600846B0
:100780004068104908400E494860084600680E4914
:1007900008400B4908600846006820F48020086083
:1007A0000846406820F4FE0048604FF41F0088604F
:1007B000FFF753FF4FF000600449086010BD0000D0
:1007C000001002400000FFF8FFFFF6FE08ED00E019
:1007D00000BFFEE710B56FF00400FFF7B3FF0A4853
:1007E00000680A49B0FBF1F0094908700846007832
:1007F00000EB4001C1EBC0104FF6FF7101EAC000F1
:100800000449088010BD00000400002000127A0096
:10081000180000201A0000200146114A12884A439D
:100820004FF0E0235A6100229A611A46126942F0A1
:1008300001021A6100BF4FF0E022106900F00102CE
:100840001AB100F48032002AF5D04FF0E02212698C
:1008500022F001024FF0E0231A6100229A617047F2
:100860001A0000200146114A12784A434FF0E02353
:100870005A6100229A611A46126942F001021A6115
:1008800000BF4FF0E022106900F001021AB100F43D
:100890008032002AF5D04FF0E022126922F00102E6
:1008A0004FF0E0231A6100229A617047180000207F
:1008B000FFF758FDFFF78EFF0A20FFF7ADFFFFF7A8
:1008C0008BFE04E0FFF7B8FE0220FFF7A5FFF9E773
:1008D000F0080008000000201C00000028010008AB
:1008E0000C0900081C0000206406000044010008F8
:1008F0000000000000A24A04000000000000000008
:0C090000010203040607080900000000C3
:04000005080000ED02
:00000001FF
